{
  "contractName": "SeazleNFT",
  "abi": [
    {
      "inputs": [],
      "stateMutability": "nonpayable",
      "type": "constructor"
    },
    {
      "anonymous": false,
      "inputs": [
        {
          "indexed": true,
          "internalType": "address",
          "name": "owner",
          "type": "address"
        },
        {
          "indexed": true,
          "internalType": "address",
          "name": "approved",
          "type": "address"
        },
        {
          "indexed": true,
          "internalType": "uint256",
          "name": "tokenId",
          "type": "uint256"
        }
      ],
      "name": "Approval",
      "type": "event"
    },
    {
      "anonymous": false,
      "inputs": [
        {
          "indexed": true,
          "internalType": "address",
          "name": "owner",
          "type": "address"
        },
        {
          "indexed": true,
          "internalType": "address",
          "name": "operator",
          "type": "address"
        },
        {
          "indexed": false,
          "internalType": "bool",
          "name": "approved",
          "type": "bool"
        }
      ],
      "name": "ApprovalForAll",
      "type": "event"
    },
    {
      "anonymous": false,
      "inputs": [
        {
          "indexed": true,
          "internalType": "address",
          "name": "previousOwner",
          "type": "address"
        },
        {
          "indexed": true,
          "internalType": "address",
          "name": "newOwner",
          "type": "address"
        }
      ],
      "name": "OwnershipTransferred",
      "type": "event"
    },
    {
      "anonymous": false,
      "inputs": [
        {
          "indexed": true,
          "internalType": "address",
          "name": "from",
          "type": "address"
        },
        {
          "indexed": true,
          "internalType": "address",
          "name": "to",
          "type": "address"
        },
        {
          "indexed": true,
          "internalType": "uint256",
          "name": "tokenId",
          "type": "uint256"
        }
      ],
      "name": "Transfer",
      "type": "event"
    },
    {
      "inputs": [],
      "name": "amountInitNFT",
      "outputs": [
        {
          "internalType": "uint256",
          "name": "",
          "type": "uint256"
        }
      ],
      "stateMutability": "view",
      "type": "function",
      "constant": true
    },
    {
      "inputs": [
        {
          "internalType": "address",
          "name": "to",
          "type": "address"
        },
        {
          "internalType": "uint256",
          "name": "tokenId",
          "type": "uint256"
        }
      ],
      "name": "approve",
      "outputs": [],
      "stateMutability": "nonpayable",
      "type": "function"
    },
    {
      "inputs": [
        {
          "internalType": "address",
          "name": "owner",
          "type": "address"
        }
      ],
      "name": "balanceOf",
      "outputs": [
        {
          "internalType": "uint256",
          "name": "",
          "type": "uint256"
        }
      ],
      "stateMutability": "view",
      "type": "function",
      "constant": true
    },
    {
      "inputs": [
        {
          "internalType": "uint256",
          "name": "tokenId",
          "type": "uint256"
        }
      ],
      "name": "getApproved",
      "outputs": [
        {
          "internalType": "address",
          "name": "",
          "type": "address"
        }
      ],
      "stateMutability": "view",
      "type": "function",
      "constant": true
    },
    {
      "inputs": [
        {
          "internalType": "address",
          "name": "owner",
          "type": "address"
        },
        {
          "internalType": "address",
          "name": "operator",
          "type": "address"
        }
      ],
      "name": "isApprovedForAll",
      "outputs": [
        {
          "internalType": "bool",
          "name": "",
          "type": "bool"
        }
      ],
      "stateMutability": "view",
      "type": "function",
      "constant": true
    },
    {
      "inputs": [],
      "name": "isMintEnable",
      "outputs": [
        {
          "internalType": "bool",
          "name": "",
          "type": "bool"
        }
      ],
      "stateMutability": "view",
      "type": "function",
      "constant": true
    },
    {
      "inputs": [],
      "name": "maxSupply",
      "outputs": [
        {
          "internalType": "uint256",
          "name": "",
          "type": "uint256"
        }
      ],
      "stateMutability": "view",
      "type": "function",
      "constant": true
    },
    {
      "inputs": [],
      "name": "mintPrice",
      "outputs": [
        {
          "internalType": "uint256",
          "name": "",
          "type": "uint256"
        }
      ],
      "stateMutability": "view",
      "type": "function",
      "constant": true
    },
    {
      "inputs": [
        {
          "internalType": "address",
          "name": "",
          "type": "address"
        }
      ],
      "name": "mintWallets",
      "outputs": [
        {
          "internalType": "uint256",
          "name": "",
          "type": "uint256"
        }
      ],
      "stateMutability": "view",
      "type": "function",
      "constant": true
    },
    {
      "inputs": [],
      "name": "myTotal",
      "outputs": [
        {
          "internalType": "uint256",
          "name": "",
          "type": "uint256"
        }
      ],
      "stateMutability": "view",
      "type": "function",
      "constant": true
    },
    {
      "inputs": [],
      "name": "name",
      "outputs": [
        {
          "internalType": "string",
          "name": "",
          "type": "string"
        }
      ],
      "stateMutability": "view",
      "type": "function",
      "constant": true
    },
    {
      "inputs": [],
      "name": "owner",
      "outputs": [
        {
          "internalType": "address",
          "name": "",
          "type": "address"
        }
      ],
      "stateMutability": "view",
      "type": "function",
      "constant": true
    },
    {
      "inputs": [
        {
          "internalType": "uint256",
          "name": "tokenId",
          "type": "uint256"
        }
      ],
      "name": "ownerOf",
      "outputs": [
        {
          "internalType": "address",
          "name": "",
          "type": "address"
        }
      ],
      "stateMutability": "view",
      "type": "function",
      "constant": true
    },
    {
      "inputs": [],
      "name": "renounceOwnership",
      "outputs": [],
      "stateMutability": "nonpayable",
      "type": "function"
    },
    {
      "inputs": [
        {
          "internalType": "address",
          "name": "from",
          "type": "address"
        },
        {
          "internalType": "address",
          "name": "to",
          "type": "address"
        },
        {
          "internalType": "uint256",
          "name": "tokenId",
          "type": "uint256"
        }
      ],
      "name": "safeTransferFrom",
      "outputs": [],
      "stateMutability": "nonpayable",
      "type": "function"
    },
    {
      "inputs": [
        {
          "internalType": "address",
          "name": "from",
          "type": "address"
        },
        {
          "internalType": "address",
          "name": "to",
          "type": "address"
        },
        {
          "internalType": "uint256",
          "name": "tokenId",
          "type": "uint256"
        },
        {
          "internalType": "bytes",
          "name": "data",
          "type": "bytes"
        }
      ],
      "name": "safeTransferFrom",
      "outputs": [],
      "stateMutability": "nonpayable",
      "type": "function"
    },
    {
      "inputs": [
        {
          "internalType": "address",
          "name": "operator",
          "type": "address"
        },
        {
          "internalType": "bool",
          "name": "approved",
          "type": "bool"
        }
      ],
      "name": "setApprovalForAll",
      "outputs": [],
      "stateMutability": "nonpayable",
      "type": "function"
    },
    {
      "inputs": [
        {
          "internalType": "bytes4",
          "name": "interfaceId",
          "type": "bytes4"
        }
      ],
      "name": "supportsInterface",
      "outputs": [
        {
          "internalType": "bool",
          "name": "",
          "type": "bool"
        }
      ],
      "stateMutability": "view",
      "type": "function",
      "constant": true
    },
    {
      "inputs": [],
      "name": "symbol",
      "outputs": [
        {
          "internalType": "string",
          "name": "",
          "type": "string"
        }
      ],
      "stateMutability": "view",
      "type": "function",
      "constant": true
    },
    {
      "inputs": [
        {
          "internalType": "uint256",
          "name": "tokenId",
          "type": "uint256"
        }
      ],
      "name": "tokenURI",
      "outputs": [
        {
          "internalType": "string",
          "name": "",
          "type": "string"
        }
      ],
      "stateMutability": "view",
      "type": "function",
      "constant": true
    },
    {
      "inputs": [],
      "name": "totalSupply",
      "outputs": [
        {
          "internalType": "uint256",
          "name": "",
          "type": "uint256"
        }
      ],
      "stateMutability": "view",
      "type": "function",
      "constant": true
    },
    {
      "inputs": [
        {
          "internalType": "address",
          "name": "from",
          "type": "address"
        },
        {
          "internalType": "address",
          "name": "to",
          "type": "address"
        },
        {
          "internalType": "uint256",
          "name": "tokenId",
          "type": "uint256"
        }
      ],
      "name": "transferFrom",
      "outputs": [],
      "stateMutability": "nonpayable",
      "type": "function"
    },
    {
      "inputs": [
        {
          "internalType": "address",
          "name": "newOwner",
          "type": "address"
        }
      ],
      "name": "transferOwnership",
      "outputs": [],
      "stateMutability": "nonpayable",
      "type": "function"
    },
    {
      "inputs": [],
      "name": "user",
      "outputs": [
        {
          "internalType": "address",
          "name": "",
          "type": "address"
        }
      ],
      "stateMutability": "view",
      "type": "function",
      "constant": true
    },
    {
      "inputs": [],
      "name": "toggleIsMintEnabled",
      "outputs": [],
      "stateMutability": "nonpayable",
      "type": "function"
    },
    {
      "inputs": [
        {
          "internalType": "uint256",
          "name": "_maxSupply",
          "type": "uint256"
        }
      ],
      "name": "setMaxSupply",
      "outputs": [],
      "stateMutability": "nonpayable",
      "type": "function"
    },
    {
      "inputs": [],
      "name": "mint",
      "outputs": [],
      "stateMutability": "nonpayable",
      "type": "function"
    }
  ],
  "bytecode": "0x6080604052662386f26fc100006007556000600b556032600c553480156200002657600080fd5b506040518060400160405280600a81526020017f5365617a6c65204e4654000000000000000000000000000000000000000000008152506040518060400160405280600a81526020017f205365617a6c654e465400000000000000000000000000000000000000000000815250620000b3620000a76200012860201b60201c565b6200013060201b60201c565b8160019081620000c491906200046e565b508060029081620000d691906200046e565b505050600560098190555033600d60006101000a81548173ffffffffffffffffffffffffffffffffffffffff021916908373ffffffffffffffffffffffffffffffffffffffff16021790555062000555565b600033905090565b60008060009054906101000a900473ffffffffffffffffffffffffffffffffffffffff169050816000806101000a81548173ffffffffffffffffffffffffffffffffffffffff021916908373ffffffffffffffffffffffffffffffffffffffff1602179055508173ffffffffffffffffffffffffffffffffffffffff168173ffffffffffffffffffffffffffffffffffffffff167f8be0079c531659141344cd1fd0a4f28419497f9722a3daafe3b4186f6b6457e060405160405180910390a35050565b600081519050919050565b7f4e487b7100000000000000000000000000000000000000000000000000000000600052604160045260246000fd5b7f4e487b7100000000000000000000000000000000000000000000000000000000600052602260045260246000fd5b600060028204905060018216806200027657607f821691505b6020821081036200028c576200028b6200022e565b5b50919050565b60008190508160005260206000209050919050565b60006020601f8301049050919050565b600082821b905092915050565b600060088302620002f67fffffffffffffffffffffffffffffffffffffffffffffffffffffffffffffffff82620002b7565b620003028683620002b7565b95508019841693508086168417925050509392505050565b6000819050919050565b6000819050919050565b60006200034f6200034962000343846200031a565b62000324565b6200031a565b9050919050565b6000819050919050565b6200036b836200032e565b620003836200037a8262000356565b848454620002c4565b825550505050565b600090565b6200039a6200038b565b620003a781848462000360565b505050565b5b81811015620003cf57620003c360008262000390565b600181019050620003ad565b5050565b601f8211156200041e57620003e88162000292565b620003f384620002a7565b8101602085101562000403578190505b6200041b6200041285620002a7565b830182620003ac565b50505b505050565b600082821c905092915050565b6000620004436000198460080262000423565b1980831691505092915050565b60006200045e838362000430565b9150826002028217905092915050565b6200047982620001f4565b67ffffffffffffffff811115620004955762000494620001ff565b5b620004a182546200025d565b620004ae828285620003d3565b600060209050601f831160018114620004e65760008415620004d1578287015190505b620004dd858262000450565b8655506200054d565b601f198416620004f68662000292565b60005b828110156200052057848901518255600182019150602085019450602081019050620004f9565b868310156200054057848901516200053c601f89168262000430565b8355505b6001600288020188555050505b505050505050565b612d5a80620005656000396000f3fe608060405234801561001057600080fd5b50600436106101a95760003560e01c80636f8b44b0116100f9578063b88d4fde11610097578063d5abeb0111610071578063d5abeb0114610472578063e37a355714610490578063e985e9c5146104c0578063f2fde38b146104f0576101a9565b8063b88d4fde1461041c578063c407321714610438578063c87b56dd14610442576101a9565b80638da5cb5b116100d35780638da5cb5b146103a657806395d89b41146103c4578063a22cb465146103e2578063a2a31ebd146103fe576101a9565b80636f8b44b01461035057806370a082311461036c578063715018a61461039c576101a9565b806323b872dd1161016657806349eb0b161161014057806349eb0b16146102c65780634f8632ba146102e45780636352211e146103025780636817c76c14610332576101a9565b806323b872dd1461027057806327454b6d1461028c57806342842e0e146102aa576101a9565b806301ffc9a7146101ae57806306fdde03146101de578063081812fc146101fc578063095ea7b31461022c5780631249c58b1461024857806318160ddd14610252575b600080fd5b6101c860048036038101906101c39190611ca4565b61050c565b6040516101d59190611cec565b60405180910390f35b6101e66105ee565b6040516101f39190611d97565b60405180910390f35b61021660048036038101906102119190611def565b610680565b6040516102239190611e5d565b60405180910390f35b61024660048036038101906102419190611ea4565b6106c6565b005b6102506107dd565b005b61025a610971565b6040516102679190611ef3565b60405180910390f35b61028a60048036038101906102859190611f0e565b610977565b005b6102946109d7565b6040516102a19190611ef3565b60405180910390f35b6102c460048036038101906102bf9190611f0e565b6109dd565b005b6102ce6109fd565b6040516102db9190611ef3565b60405180910390f35b6102ec610a03565b6040516102f99190611e5d565b60405180910390f35b61031c60048036038101906103179190611def565b610a29565b6040516103299190611e5d565b60405180910390f35b61033a610ada565b6040516103479190611ef3565b60405180910390f35b61036a60048036038101906103659190611def565b610ae0565b005b61038660048036038101906103819190611f61565b610af2565b6040516103939190611ef3565b60405180910390f35b6103a4610ba9565b005b6103ae610bbd565b6040516103bb9190611e5d565b60405180910390f35b6103cc610be6565b6040516103d99190611d97565b60405180910390f35b6103fc60048036038101906103f79190611fba565b610c78565b005b610406610c8e565b6040516104139190611cec565b60405180910390f35b6104366004803603810190610431919061212f565b610ca1565b005b610440610d03565b005b61045c60048036038101906104579190611def565b610d37565b6040516104699190611d97565b60405180910390f35b61047a610d9f565b6040516104879190611ef3565b60405180910390f35b6104aa60048036038101906104a59190611f61565b610da5565b6040516104b79190611ef3565b60405180910390f35b6104da60048036038101906104d591906121b2565b610dbd565b6040516104e79190611cec565b60405180910390f35b61050a60048036038101906105059190611f61565b610e51565b005b60007f80ac58cd000000000000000000000000000000000000000000000000000000007bffffffffffffffffffffffffffffffffffffffffffffffffffffffff1916827bffffffffffffffffffffffffffffffffffffffffffffffffffffffff191614806105d757507f5b5e139f000000000000000000000000000000000000000000000000000000007bffffffffffffffffffffffffffffffffffffffffffffffffffffffff1916827bffffffffffffffffffffffffffffffffffffffffffffffffffffffff1916145b806105e757506105e682610ed4565b5b9050919050565b6060600180546105fd90612221565b80601f016020809104026020016040519081016040528092919081815260200182805461062990612221565b80156106765780601f1061064b57610100808354040283529160200191610676565b820191906000526020600020905b81548152906001019060200180831161065957829003601f168201915b5050505050905090565b600061068b82610f3e565b6005600083815260200190815260200160002060009054906101000a900473ffffffffffffffffffffffffffffffffffffffff169050919050565b60006106d182610a29565b90508073ffffffffffffffffffffffffffffffffffffffff168373ffffffffffffffffffffffffffffffffffffffff1603610741576040517f08c379a0000000000000000000000000000000000000000000000000000000008152600401610738906122c4565b60405180910390fd5b8073ffffffffffffffffffffffffffffffffffffffff16610760610f89565b73ffffffffffffffffffffffffffffffffffffffff16148061078f575061078e81610789610f89565b610dbd565b5b6107ce576040517f08c379a00000000000000000000000000000000000000000000000000000000081526004016107c590612356565b60405180910390fd5b6107d88383610f91565b505050565b600a60009054906101000a900460ff1661082c576040517f08c379a0000000000000000000000000000000000000000000000000000000008152600401610823906123c2565b60405180910390fd5b6001600e60003373ffffffffffffffffffffffffffffffffffffffff1673ffffffffffffffffffffffffffffffffffffffff16815260200190815260200160002054106108ae576040517f08c379a00000000000000000000000000000000000000000000000000000000081526004016108a59061242e565b60405180910390fd5b600854600954116108f4576040517f08c379a00000000000000000000000000000000000000000000000000000000081526004016108eb9061249a565b60405180910390fd5b600e60003373ffffffffffffffffffffffffffffffffffffffff1673ffffffffffffffffffffffffffffffffffffffff1681526020019081526020016000206000815480929190610944906124e9565b919050555060016008600082825461095c9190612531565b9250508190555061096f3360085461104a565b565b60085481565b610988610982610f89565b82611068565b6109c7576040517f08c379a00000000000000000000000000000000000000000000000000000000081526004016109be906125d7565b60405180910390fd5b6109d28383836110fd565b505050565b600b5481565b6109f883838360405180602001604052806000815250610ca1565b505050565b600c5481565b600d60009054906101000a900473ffffffffffffffffffffffffffffffffffffffff1681565b6000806003600084815260200190815260200160002060009054906101000a900473ffffffffffffffffffffffffffffffffffffffff169050600073ffffffffffffffffffffffffffffffffffffffff168173ffffffffffffffffffffffffffffffffffffffff1603610ad1576040517f08c379a0000000000000000000000000000000000000000000000000000000008152600401610ac890612643565b60405180910390fd5b80915050919050565b60075481565b610ae8611363565b8060098190555050565b60008073ffffffffffffffffffffffffffffffffffffffff168273ffffffffffffffffffffffffffffffffffffffff1603610b62576040517f08c379a0000000000000000000000000000000000000000000000000000000008152600401610b59906126d5565b60405180910390fd5b600460008373ffffffffffffffffffffffffffffffffffffffff1673ffffffffffffffffffffffffffffffffffffffff168152602001908152602001600020549050919050565b610bb1611363565b610bbb60006113e1565b565b60008060009054906101000a900473ffffffffffffffffffffffffffffffffffffffff16905090565b606060028054610bf590612221565b80601f0160208091040260200160405190810160405280929190818152602001828054610c2190612221565b8015610c6e5780601f10610c4357610100808354040283529160200191610c6e565b820191906000526020600020905b815481529060010190602001808311610c5157829003601f168201915b5050505050905090565b610c8a610c83610f89565b83836114a5565b5050565b600a60009054906101000a900460ff1681565b610cb2610cac610f89565b83611068565b610cf1576040517f08c379a0000000000000000000000000000000000000000000000000000000008152600401610ce8906125d7565b60405180910390fd5b610cfd84848484611611565b50505050565b610d0b611363565b600a60009054906101000a900460ff1615600a60006101000a81548160ff021916908315150217905550565b6060610d4282610f3e565b6000610d4c61166d565b90506000815111610d6c5760405180602001604052806000815250610d97565b80610d7684611684565b604051602001610d87929190612731565b6040516020818303038152906040525b915050919050565b60095481565b600e6020528060005260406000206000915090505481565b6000600660008473ffffffffffffffffffffffffffffffffffffffff1673ffffffffffffffffffffffffffffffffffffffff16815260200190815260200160002060008373ffffffffffffffffffffffffffffffffffffffff1673ffffffffffffffffffffffffffffffffffffffff16815260200190815260200160002060009054906101000a900460ff16905092915050565b610e59611363565b600073ffffffffffffffffffffffffffffffffffffffff168173ffffffffffffffffffffffffffffffffffffffff1603610ec8576040517f08c379a0000000000000000000000000000000000000000000000000000000008152600401610ebf906127c7565b60405180910390fd5b610ed1816113e1565b50565b60007f01ffc9a7000000000000000000000000000000000000000000000000000000007bffffffffffffffffffffffffffffffffffffffffffffffffffffffff1916827bffffffffffffffffffffffffffffffffffffffffffffffffffffffff1916149050919050565b610f47816117e4565b610f86576040517f08c379a0000000000000000000000000000000000000000000000000000000008152600401610f7d90612643565b60405180910390fd5b50565b600033905090565b816005600083815260200190815260200160002060006101000a81548173ffffffffffffffffffffffffffffffffffffffff021916908373ffffffffffffffffffffffffffffffffffffffff160217905550808273ffffffffffffffffffffffffffffffffffffffff1661100483610a29565b73ffffffffffffffffffffffffffffffffffffffff167f8c5be1e5ebec7d5bd14f71427d1e84f3dd0314c0f7b2291e5b200ac8c7c3b92560405160405180910390a45050565b611064828260405180602001604052806000815250611850565b5050565b60008061107483610a29565b90508073ffffffffffffffffffffffffffffffffffffffff168473ffffffffffffffffffffffffffffffffffffffff1614806110b657506110b58185610dbd565b5b806110f457508373ffffffffffffffffffffffffffffffffffffffff166110dc84610680565b73ffffffffffffffffffffffffffffffffffffffff16145b91505092915050565b8273ffffffffffffffffffffffffffffffffffffffff1661111d82610a29565b73ffffffffffffffffffffffffffffffffffffffff1614611173576040517f08c379a000000000000000000000000000000000000000000000000000000000815260040161116a90612859565b60405180910390fd5b600073ffffffffffffffffffffffffffffffffffffffff168273ffffffffffffffffffffffffffffffffffffffff16036111e2576040517f08c379a00000000000000000000000000000000000000000000000000000000081526004016111d9906128eb565b60405180910390fd5b6111ed8383836118ab565b6111f8600082610f91565b6001600460008573ffffffffffffffffffffffffffffffffffffffff1673ffffffffffffffffffffffffffffffffffffffff1681526020019081526020016000206000828254611248919061290b565b925050819055506001600460008473ffffffffffffffffffffffffffffffffffffffff1673ffffffffffffffffffffffffffffffffffffffff168152602001908152602001600020600082825461129f9190612531565b92505081905550816003600083815260200190815260200160002060006101000a81548173ffffffffffffffffffffffffffffffffffffffff021916908373ffffffffffffffffffffffffffffffffffffffff160217905550808273ffffffffffffffffffffffffffffffffffffffff168473ffffffffffffffffffffffffffffffffffffffff167fddf252ad1be2c89b69c2b068fc378daa952ba7f163c4a11628f55a4df523b3ef60405160405180910390a461135e8383836118b0565b505050565b61136b610f89565b73ffffffffffffffffffffffffffffffffffffffff16611389610bbd565b73ffffffffffffffffffffffffffffffffffffffff16146113df576040517f08c379a00000000000000000000000000000000000000000000000000000000081526004016113d69061298b565b60405180910390fd5b565b60008060009054906101000a900473ffffffffffffffffffffffffffffffffffffffff169050816000806101000a81548173ffffffffffffffffffffffffffffffffffffffff021916908373ffffffffffffffffffffffffffffffffffffffff1602179055508173ffffffffffffffffffffffffffffffffffffffff168173ffffffffffffffffffffffffffffffffffffffff167f8be0079c531659141344cd1fd0a4f28419497f9722a3daafe3b4186f6b6457e060405160405180910390a35050565b8173ffffffffffffffffffffffffffffffffffffffff168373ffffffffffffffffffffffffffffffffffffffff1603611513576040517f08c379a000000000000000000000000000000000000000000000000000000000815260040161150a906129f7565b60405180910390fd5b80600660008573ffffffffffffffffffffffffffffffffffffffff1673ffffffffffffffffffffffffffffffffffffffff16815260200190815260200160002060008473ffffffffffffffffffffffffffffffffffffffff1673ffffffffffffffffffffffffffffffffffffffff16815260200190815260200160002060006101000a81548160ff0219169083151502179055508173ffffffffffffffffffffffffffffffffffffffff168373ffffffffffffffffffffffffffffffffffffffff167f17307eab39ab6107e8899845ad3d59bd9653f200f220920489ca2b5937696c31836040516116049190611cec565b60405180910390a3505050565b61161c8484846110fd565b611628848484846118b5565b611667576040517f08c379a000000000000000000000000000000000000000000000000000000000815260040161165e90612a89565b60405180910390fd5b50505050565b606060405180602001604052806000815250905090565b6060600082036116cb576040518060400160405280600181526020017f300000000000000000000000000000000000000000000000000000000000000081525090506117df565b600082905060005b600082146116fd5780806116e6906124e9565b915050600a826116f69190612ad8565b91506116d3565b60008167ffffffffffffffff81111561171957611718612004565b5b6040519080825280601f01601f19166020018201604052801561174b5781602001600182028036833780820191505090505b5090505b600085146117d857600182611764919061290b565b9150600a856117739190612b09565b603061177f9190612531565b60f81b81838151811061179557611794612b3a565b5b60200101907effffffffffffffffffffffffffffffffffffffffffffffffffffffffffffff1916908160001a905350600a856117d19190612ad8565b945061174f565b8093505050505b919050565b60008073ffffffffffffffffffffffffffffffffffffffff166003600084815260200190815260200160002060009054906101000a900473ffffffffffffffffffffffffffffffffffffffff1673ffffffffffffffffffffffffffffffffffffffff1614159050919050565b61185a8383611a3c565b61186760008484846118b5565b6118a6576040517f08c379a000000000000000000000000000000000000000000000000000000000815260040161189d90612a89565b60405180910390fd5b505050565b505050565b505050565b60006118d68473ffffffffffffffffffffffffffffffffffffffff16611c15565b15611a2f578373ffffffffffffffffffffffffffffffffffffffff1663150b7a026118ff610f89565b8786866040518563ffffffff1660e01b81526004016119219493929190612bbe565b6020604051808303816000875af192505050801561195d57506040513d601f19601f8201168201806040525081019061195a9190612c1f565b60015b6119df573d806000811461198d576040519150601f19603f3d011682016040523d82523d6000602084013e611992565b606091505b5060008151036119d7576040517f08c379a00000000000000000000000000000000000000000000000000000000081526004016119ce90612a89565b60405180910390fd5b805181602001fd5b63150b7a0260e01b7bffffffffffffffffffffffffffffffffffffffffffffffffffffffff1916817bffffffffffffffffffffffffffffffffffffffffffffffffffffffff191614915050611a34565b600190505b949350505050565b600073ffffffffffffffffffffffffffffffffffffffff168273ffffffffffffffffffffffffffffffffffffffff1603611aab576040517f08c379a0000000000000000000000000000000000000000000000000000000008152600401611aa290612c98565b60405180910390fd5b611ab4816117e4565b15611af4576040517f08c379a0000000000000000000000000000000000000000000000000000000008152600401611aeb90612d04565b60405180910390fd5b611b00600083836118ab565b6001600460008473ffffffffffffffffffffffffffffffffffffffff1673ffffffffffffffffffffffffffffffffffffffff1681526020019081526020016000206000828254611b509190612531565b92505081905550816003600083815260200190815260200160002060006101000a81548173ffffffffffffffffffffffffffffffffffffffff021916908373ffffffffffffffffffffffffffffffffffffffff160217905550808273ffffffffffffffffffffffffffffffffffffffff16600073ffffffffffffffffffffffffffffffffffffffff167fddf252ad1be2c89b69c2b068fc378daa952ba7f163c4a11628f55a4df523b3ef60405160405180910390a4611c11600083836118b0565b5050565b6000808273ffffffffffffffffffffffffffffffffffffffff163b119050919050565b6000604051905090565b600080fd5b600080fd5b60007fffffffff0000000000000000000000000000000000000000000000000000000082169050919050565b611c8181611c4c565b8114611c8c57600080fd5b50565b600081359050611c9e81611c78565b92915050565b600060208284031215611cba57611cb9611c42565b5b6000611cc884828501611c8f565b91505092915050565b60008115159050919050565b611ce681611cd1565b82525050565b6000602082019050611d016000830184611cdd565b92915050565b600081519050919050565b600082825260208201905092915050565b60005b83811015611d41578082015181840152602081019050611d26565b60008484015250505050565b6000601f19601f8301169050919050565b6000611d6982611d07565b611d738185611d12565b9350611d83818560208601611d23565b611d8c81611d4d565b840191505092915050565b60006020820190508181036000830152611db18184611d5e565b905092915050565b6000819050919050565b611dcc81611db9565b8114611dd757600080fd5b50565b600081359050611de981611dc3565b92915050565b600060208284031215611e0557611e04611c42565b5b6000611e1384828501611dda565b91505092915050565b600073ffffffffffffffffffffffffffffffffffffffff82169050919050565b6000611e4782611e1c565b9050919050565b611e5781611e3c565b82525050565b6000602082019050611e726000830184611e4e565b92915050565b611e8181611e3c565b8114611e8c57600080fd5b50565b600081359050611e9e81611e78565b92915050565b60008060408385031215611ebb57611eba611c42565b5b6000611ec985828601611e8f565b9250506020611eda85828601611dda565b9150509250929050565b611eed81611db9565b82525050565b6000602082019050611f086000830184611ee4565b92915050565b600080600060608486031215611f2757611f26611c42565b5b6000611f3586828701611e8f565b9350506020611f4686828701611e8f565b9250506040611f5786828701611dda565b9150509250925092565b600060208284031215611f7757611f76611c42565b5b6000611f8584828501611e8f565b91505092915050565b611f9781611cd1565b8114611fa257600080fd5b50565b600081359050611fb481611f8e565b92915050565b60008060408385031215611fd157611fd0611c42565b5b6000611fdf85828601611e8f565b9250506020611ff085828601611fa5565b9150509250929050565b600080fd5b600080fd5b7f4e487b7100000000000000000000000000000000000000000000000000000000600052604160045260246000fd5b61203c82611d4d565b810181811067ffffffffffffffff8211171561205b5761205a612004565b5b80604052505050565b600061206e611c38565b905061207a8282612033565b919050565b600067ffffffffffffffff82111561209a57612099612004565b5b6120a382611d4d565b9050602081019050919050565b82818337600083830152505050565b60006120d26120cd8461207f565b612064565b9050828152602081018484840111156120ee576120ed611fff565b5b6120f98482856120b0565b509392505050565b600082601f83011261211657612115611ffa565b5b81356121268482602086016120bf565b91505092915050565b6000806000806080858703121561214957612148611c42565b5b600061215787828801611e8f565b945050602061216887828801611e8f565b935050604061217987828801611dda565b925050606085013567ffffffffffffffff81111561219a57612199611c47565b5b6121a687828801612101565b91505092959194509250565b600080604083850312156121c9576121c8611c42565b5b60006121d785828601611e8f565b92505060206121e885828601611e8f565b9150509250929050565b7f4e487b7100000000000000000000000000000000000000000000000000000000600052602260045260246000fd5b6000600282049050600182168061223957607f821691505b60208210810361224c5761224b6121f2565b5b50919050565b7f4552433732313a20617070726f76616c20746f2063757272656e74206f776e6560008201527f7200000000000000000000000000000000000000000000000000000000000000602082015250565b60006122ae602183611d12565b91506122b982612252565b604082019050919050565b600060208201905081810360008301526122dd816122a1565b9050919050565b7f4552433732313a20617070726f76652063616c6c6572206973206e6f7420746f60008201527f6b656e206f776e6572206e6f7220617070726f76656420666f7220616c6c0000602082015250565b6000612340603e83611d12565b915061234b826122e4565b604082019050919050565b6000602082019050818103600083015261236f81612333565b9050919050565b7f6d696e74696e67206e6f7420656e61626c656400000000000000000000000000600082015250565b60006123ac601383611d12565b91506123b782612376565b602082019050919050565b600060208201905081810360008301526123db8161239f565b9050919050565b7f65786365656473206d6178000000000000000000000000000000000000000000600082015250565b6000612418600b83611d12565b9150612423826123e2565b602082019050919050565b600060208201905081810360008301526124478161240b565b9050919050565b7f736f6c64206f7574000000000000000000000000000000000000000000000000600082015250565b6000612484600883611d12565b915061248f8261244e565b602082019050919050565b600060208201905081810360008301526124b381612477565b9050919050565b7f4e487b7100000000000000000000000000000000000000000000000000000000600052601160045260246000fd5b60006124f482611db9565b91507fffffffffffffffffffffffffffffffffffffffffffffffffffffffffffffffff8203612526576125256124ba565b5b600182019050919050565b600061253c82611db9565b915061254783611db9565b925082820190508082111561255f5761255e6124ba565b5b92915050565b7f4552433732313a2063616c6c6572206973206e6f7420746f6b656e206f776e6560008201527f72206e6f7220617070726f766564000000000000000000000000000000000000602082015250565b60006125c1602e83611d12565b91506125cc82612565565b604082019050919050565b600060208201905081810360008301526125f0816125b4565b9050919050565b7f4552433732313a20696e76616c696420746f6b656e2049440000000000000000600082015250565b600061262d601883611d12565b9150612638826125f7565b602082019050919050565b6000602082019050818103600083015261265c81612620565b9050919050565b7f4552433732313a2061646472657373207a65726f206973206e6f74206120766160008201527f6c6964206f776e65720000000000000000000000000000000000000000000000602082015250565b60006126bf602983611d12565b91506126ca82612663565b604082019050919050565b600060208201905081810360008301526126ee816126b2565b9050919050565b600081905092915050565b600061270b82611d07565b61271581856126f5565b9350612725818560208601611d23565b80840191505092915050565b600061273d8285612700565b91506127498284612700565b91508190509392505050565b7f4f776e61626c653a206e6577206f776e657220697320746865207a65726f206160008201527f6464726573730000000000000000000000000000000000000000000000000000602082015250565b60006127b1602683611d12565b91506127bc82612755565b604082019050919050565b600060208201905081810360008301526127e0816127a4565b9050919050565b7f4552433732313a207472616e736665722066726f6d20696e636f72726563742060008201527f6f776e6572000000000000000000000000000000000000000000000000000000602082015250565b6000612843602583611d12565b915061284e826127e7565b604082019050919050565b6000602082019050818103600083015261287281612836565b9050919050565b7f4552433732313a207472616e7366657220746f20746865207a65726f2061646460008201527f7265737300000000000000000000000000000000000000000000000000000000602082015250565b60006128d5602483611d12565b91506128e082612879565b604082019050919050565b60006020820190508181036000830152612904816128c8565b9050919050565b600061291682611db9565b915061292183611db9565b9250828203905081811115612939576129386124ba565b5b92915050565b7f4f776e61626c653a2063616c6c6572206973206e6f7420746865206f776e6572600082015250565b6000612975602083611d12565b91506129808261293f565b602082019050919050565b600060208201905081810360008301526129a481612968565b9050919050565b7f4552433732313a20617070726f766520746f2063616c6c657200000000000000600082015250565b60006129e1601983611d12565b91506129ec826129ab565b602082019050919050565b60006020820190508181036000830152612a10816129d4565b9050919050565b7f4552433732313a207472616e7366657220746f206e6f6e20455243373231526560008201527f63656976657220696d706c656d656e7465720000000000000000000000000000602082015250565b6000612a73603283611d12565b9150612a7e82612a17565b604082019050919050565b60006020820190508181036000830152612aa281612a66565b9050919050565b7f4e487b7100000000000000000000000000000000000000000000000000000000600052601260045260246000fd5b6000612ae382611db9565b9150612aee83611db9565b925082612afe57612afd612aa9565b5b828204905092915050565b6000612b1482611db9565b9150612b1f83611db9565b925082612b2f57612b2e612aa9565b5b828206905092915050565b7f4e487b7100000000000000000000000000000000000000000000000000000000600052603260045260246000fd5b600081519050919050565b600082825260208201905092915050565b6000612b9082612b69565b612b9a8185612b74565b9350612baa818560208601611d23565b612bb381611d4d565b840191505092915050565b6000608082019050612bd36000830187611e4e565b612be06020830186611e4e565b612bed6040830185611ee4565b8181036060830152612bff8184612b85565b905095945050505050565b600081519050612c1981611c78565b92915050565b600060208284031215612c3557612c34611c42565b5b6000612c4384828501612c0a565b91505092915050565b7f4552433732313a206d696e7420746f20746865207a65726f2061646472657373600082015250565b6000612c82602083611d12565b9150612c8d82612c4c565b602082019050919050565b60006020820190508181036000830152612cb181612c75565b9050919050565b7f4552433732313a20746f6b656e20616c7265616479206d696e74656400000000600082015250565b6000612cee601c83611d12565b9150612cf982612cb8565b602082019050919050565b60006020820190508181036000830152612d1d81612ce1565b905091905056fea2646970667358221220ffbbb9806989fee68428bb1b7aa78b4a2c8dc2ca6e0730d768da68a78bbaada764736f6c63430008110033",
  "immutableReferences": {},
  "source": "// SPDX-License-Identifier: MIT\r\n\r\npragma solidity ^0.8.0;\r\n\r\nimport \"@openzeppelin/contracts/access/Ownable.sol\";\r\nimport \"@openzeppelin/contracts/token/ERC721/ERC721.sol\";\r\n\r\ncontract SeazleNFT is Ownable,ERC721\r\n{\r\n    uint public mintPrice = 0.01 ether;\r\n    uint public totalSupply ;\r\n    uint public maxSupply;\r\n    bool public isMintEnable;\r\n    uint public myTotal =0;\r\n    uint public amountInitNFT = 50;\r\n\r\n    address public user;\r\n    mapping(address=>uint256) public mintWallets;\r\n\r\n    constructor ()  ERC721(\"Seazle NFT\",\" SeazleNFT\")\r\n    {\r\n        maxSupply=5;\r\n        user = msg.sender;\r\n    }\r\n\r\n    function toggleIsMintEnabled() external onlyOwner\r\n    {\r\n        isMintEnable = !isMintEnable;\r\n    }\r\n\r\n    function setMaxSupply(uint _maxSupply) external onlyOwner\r\n    {\r\n        maxSupply=_maxSupply;\r\n    }\r\n\r\n    /*function mint() external payable\r\n    {\r\n        require(isMintEnable,\"minting not enabled\");\r\n        require(mintWallets[msg.sender] <1 ,\"exceeds max\");\r\n        //require(msg.value == 0.01 ether,\"Dont enough value\");   // mint co phi thi enabled tml nay\r\n        require(maxSupply > totalSupply, \"sold out\");\r\n\r\n        mintWallets[msg.sender] ++;\r\n        totalSupply +=1;\r\n        _safeMint(msg.sender,totalSupply);\r\n    } */\r\n\r\n    function mint() public\r\n    {\r\n        require(isMintEnable,\"minting not enabled\");\r\n        require(mintWallets[msg.sender] <1 ,\"exceeds max\");\r\n        require(maxSupply > totalSupply, \"sold out\");\r\n\r\n        mintWallets[msg.sender] ++;\r\n        totalSupply +=1;\r\n        _safeMint(msg.sender,totalSupply);\r\n    } \r\n}",
  "sourcePath": "D:\\CS300\\Blockchain\\Seazle NFT\\contracts\\SeazleNFT.sol",
  "compiler": {
    "name": "solc",
    "version": "0.8.17+commit.8df45f5f.Emscripten.clang"
  },
  "schemaVersion": "3.4.10",
  "updatedAt": "2022-10-31T15:42:41.464Z",
  "networkType": "ethereum",
  "devdoc": {
    "kind": "dev",
    "methods": {
      "approve(address,uint256)": {
        "details": "See {IERC721-approve}."
      },
      "balanceOf(address)": {
        "details": "See {IERC721-balanceOf}."
      },
      "getApproved(uint256)": {
        "details": "See {IERC721-getApproved}."
      },
      "isApprovedForAll(address,address)": {
        "details": "See {IERC721-isApprovedForAll}."
      },
      "name()": {
        "details": "See {IERC721Metadata-name}."
      },
      "owner()": {
        "details": "Returns the address of the current owner."
      },
      "ownerOf(uint256)": {
        "details": "See {IERC721-ownerOf}."
      },
      "renounceOwnership()": {
        "details": "Leaves the contract without owner. It will not be possible to call `onlyOwner` functions anymore. Can only be called by the current owner. NOTE: Renouncing ownership will leave the contract without an owner, thereby removing any functionality that is only available to the owner."
      },
      "safeTransferFrom(address,address,uint256)": {
        "details": "See {IERC721-safeTransferFrom}."
      },
      "safeTransferFrom(address,address,uint256,bytes)": {
        "details": "See {IERC721-safeTransferFrom}."
      },
      "setApprovalForAll(address,bool)": {
        "details": "See {IERC721-setApprovalForAll}."
      },
      "supportsInterface(bytes4)": {
        "details": "See {IERC165-supportsInterface}."
      },
      "symbol()": {
        "details": "See {IERC721Metadata-symbol}."
      },
      "tokenURI(uint256)": {
        "details": "See {IERC721Metadata-tokenURI}."
      },
      "transferFrom(address,address,uint256)": {
        "details": "See {IERC721-transferFrom}."
      },
      "transferOwnership(address)": {
        "details": "Transfers ownership of the contract to a new account (`newOwner`). Can only be called by the current owner."
      }
    },
    "version": 1
  },
  "userdoc": {
    "kind": "user",
    "methods": {},
    "version": 1
  }
}